:020000040800F2
:10000000F8050020D5000008511C0008C51A00089A
:1000100000000000000000000000000000000000E0
:100020000000000000000000000000009B1C000811
:100030000000000000000000991C00089D1C000842
:100040000501000805010008050100080501000878
:100050000501000805010008050100080501000868
:10006000050100080501000805010008B1050008A8
:100070000501000805010008050100080501000848
:100080000501000800000000000000000501000854
:100090000000000005010008491D000805010008D6
:1000A0000000000005010008050100080501000826
:1000B000D521000800000000E10400080501000847
:1000C0000348854600F0EAF8004800477524000818
:1000D000F80500200C4880F308880C480168090ED8
:1000E0000B4A914205D10B480B4901600B480C4962
:1000F00001600C4880470C480047FEE7FEE7FEE73A
:10010000FEE7FEE7FEE70000F8050020040000001F
:100110001F00000018100240010000000000014014
:1001200000000000ED1C0008C100000830B50B46BF
:10013000014600202022012409E00D46D5409D42C1
:1001400005D31D469540491B254695404019154647
:10015000521E002DF1DC30BDD2B201E00270401C15
:10016000491EFBD270470022F6E710B513460A4637
:1001700004461946FFF7F0FF204610BD0321001D7D
:10018000401E037812021A43491EF9D510467047E3
:10019000024670B54A40D30FDB0740002DD04A001D
:1001A0002AD0010E140E000212020919400A520A46
:1001B0008418E50104465443000A120A2E045043F1
:1001C000A4194219200CC543AA18120C0125AD032D
:1001D000521C521912047F39240400D0521C1043BF
:1001E00001D44000491EC2B20C06C0092018401CB0
:1001F0004008802A02D003E0002070BD4008400083
:10020000002900DA0020184370BD10B500229623A3
:10021000114600F009F810BD002904DA401C49001D
:1002200001D140084000704770B40024050C05D18E
:100230001024000402D1002921D01124050E01D17F
:1002400000020834050F01D10001241D850F01D1E2
:100250008000A41C002801DB4000641C002908D099
:1002600020252E1B0D46F540A14000D00121294339
:10027000084301061B1B000ADB1D02D5002070BCD1
:100280007047DB05181880180029F8DA401C49006F
:10029000F5D170BC4008400070470000064C0125B5
:1002A000064E05E0E36807CC2B430C3C984710341E
:1002B000B442F7D3FFF708FF8C250008AC250008EF
:1002C0000149042008707047020000200149052000
:1002D0000870704702000020014903200870704731
:1002E00002000020014904204870704702000020ED
:1002F0000149052048707047020000200149032091
:10030000487070470200002010B5002219491A48B1
:1003100002F062F8184800221849283002F05CF810
:10032000174A0321144801F079FF164A04211248A4
:1003300001F074FF144A05210F4801F06FFF0E48C9
:10034000124A0321283001F069FF0B48104A0421AA
:10035000283001F063FF08480E4A0521283001F0DB
:100360005DFF054802F052F80348283002F04EF8CD
:1003700010BD0000552500088001002065250008FB
:10038000D9020008C1020008CD020008FD020008E1
:10039000E5020008F10200081CB540216A46117010
:1003A00078215170602191700021D1700191082154
:1003B00000F070F81CBD1CB540216A461170642124
:1003C0005170602191700021D1700191082100F0DD
:1003D00061F81CBD1CB540216A4611706C2151703A
:1003E000602191700021D1700191082100F052F834
:1003F0001CBD1CB52F226B461A7060225A709A7071
:100400000022DA70002909D0032119715A719A71FA
:10041000DA711A46082100F03DF81CBD0121F4E70D
:100420001CB523236A4613707A235370602393709C
:100430000023D37011710B1253710B149371090EB9
:10044000D171082100F026F81CBD7CB50023602482
:10045000002912D023256A461570FF255570947027
:10046000D37011710B1253710B149371090ED1716A
:100470006A46082100F00EF87CBD2B2269460A70FE
:1004800040224A708C70CB7044220A714B718B7180
:10049000CB71EDE710B588B01446082917D8002CA9
:1004A00015D0032252028018009000200290039081
:1004B00004910A4800F0FEF900280BD006AB224652
:1004C0006946064800F0A6F8002008B010BD0020DC
:1004D000C043FAE70120C043F7E7000020000020F6
:1004E00010B5024800F0FCF910BD0000200000200B
:1004F00000B58BB00020029003900590069001217A
:100500000090019004900E2007910891099069468F
:10051000054800F0E6F8044800F0B3FB0221024869
:1005200000F065F80BB000BD20000020F8B51C4DB0
:100530006879002833D01B4C2846203822780B23BA
:10054000DB010168D218914227D18068002824D1AC
:1005500028462038817F427F0802104312492B46EB
:10056000471858781E789A780102314312040A43DA
:10057000D97809061143002F04D0082F04D0142F76
:100580000BD103E0616008E0A16006E03043FFF7B3
:100590003CFE0649FFF7FCFDE06000206871F8BDF5
:1005A000F0010020040000209C9FFFFF0AD7233C9D
:1005B00010B5034800F0BCFB024800F0B9FB10BDC9
:1005C0003C010020F800002010B5044600680549F1
:1005D00040181421FFF7AAFD800020640248E06360
:1005E00010BD0000F8FFFDBF000002407047202250
:1005F000125C012A08D0022A06D0416A0122920424
:100600001143416201207047006842690A43426118
:1006100000207047F8B5044620300078164622685E
:100620009268012805D0022803D0606A012189045C
:1006300053E01001800F01D1D0004BD59001800F05
:10064000022803D9606A0121C90546E001273A461C
:1006500082401A608A68002A14D0CB681A434B681B
:10066000DB001A430301FF3325688133EA5005019B
:100670002846FF3023680A6985301A50097D012910
:1006800004D009E00A88CB685205EAE721680A58D5
:10069000FF2301331A430A50701DFFF76FFD3179B4
:1006A000000208432946FF3122688D315050701CEA
:1006B000FFF764FD3178000208432946FF312268C4
:1006C00089315050FF3520688135415939434151B6
:1006D0000020F8BD606A01214905084360620120DD
:1006E000F8BD30B52022125C0368012A08D0022A26
:1006F00006D0416A0122920411434162012030BDBB
:10070000DA1DFF32FA3214680120044314600C7DB4
:10071000E406E40EA040D4698443D461CC69002C83
:100720001AD1D4688443D4608C898D882404ADB2F6
:100730002C434D69ED00ED18FF35FF3502352C6473
:100740000C890D882404ADB22C434D69ED00ED18E1
:10075000FF35FF3502356C64CC69012C1AD1D468A1
:100760000443D4600C888D882404ADB22C434D69B9
:10077000ED00ED18FF35FF3502352C640C898D89AD
:100780002404ADB22C434D69ED00EB18FF33FF3369
:1007900002335C648B69002B53680BD003435360B6
:1007A0000B69002B536907D003435361096A012980
:1007B00004D006E08343F2E78343F6E7D1690143BF
:1007C000D1611068400840001060002030BD7047C3
:1007D000F0B52024245C012C06D0022C04D0416A00
:1007E0000122920411435BE001246405056800299D
:1007F00052D02D69AD0751D00C012546FF35066852
:10080000B135765904273E409660066876594AD03D
:10081000F608566006687559AD07ED0FD560254698
:10082000FF350668B53576593607360F1661066806
:1008300076593604360E9661066875592D0C556149
:100840002246FF320568B932AD581D700568AD58B3
:100850002D0A5D700568AD582D0C9D700568AA586D
:10086000FF34120EDA700268BD3412591A71026830
:100870001259120A5A7102681259120C9A710268BE
:100880001259120EDA712022006800290ED0016977
:10089000114301610020F0BDED68ABE7416A2143DF
:1008A00041620120F0BD760D1660B3E7C1681143C7
:1008B000C160EFE701462022525C0020012A01D0EE
:1008C000022A0CD109688A68520100D501208A6881
:1008D000120100D5401C8968C90000D5401C704732
:1008E000F0B50546006885B046690024416801916D
:1008F0008768C16803910169029181690091F107DC
:1009000048D0F90714D001218160B80703D52846E3
:1009100000F0E4F90CE0780702D50124E40207E0D6
:10092000380702D50124240302E0284600F0D5F957
:10093000F80517D5FF20296801308860B80503D570
:10094000284600F0CDF90DE0780502D501204003DE
:1009500003E0380503D501208003044302E0284664
:1009600000F0BDF9F80315D501202968000488605E
:10097000B90303D5284600F0B5F90BE0790302D599
:100980000120C00301E0390301D5044302E02846F9
:1009900000F0A7F930071027002806DA0398C006F0
:1009A00003D5780104432868C760700708D5039809
:1009B000000705D529680820C860284600F04CF9D2
:1009C000B00706D52868C068800702D0284600F026
:1009D00045F9700607D50298C00604D501208002AB
:1009E000044328680761B00608D50298000705D5BA
:1009F000296808200861284600F040F9F00606D56D
:100A000028680069800702D0284600F038F9B00352
:100A100007D50198C00604D528684760284600F02D
:100A20002FF9F00308D50198000705D5296808209B
:100A30004860284600F057F930043CD5019841073A
:100A40000420002935DAF10504D50099C90701D041
:100A500001210C43B10504D50099890701D5022174
:100A60000C43710503D50099490700D504433105AE
:100A70001FD500994906490F1BD0009A70210A40E2
:100A8000402A11D006DC102A09D0202A09D0302AA9
:100A90000BD108E0502A18D0602A06D117E00822AE
:100AA00002E03C4301E0202214432A6893698B430F
:100AB000936129684860002C05D0686A2043686209
:100AC0002846FFF784FE05B0F0BD8022ECE7FF2248
:100AD0000132E9E7F8B5040005D02546203528782D
:100AE000002802D004E00120F8BD204600F07AF88A
:100AF0002068016802229143016000F04FFA01274B
:100B000006467F0404E000F049FA801B0A2811D849
:100B1000206840688007F6D42068016801221143EC
:100B2000016000F03BFA06460AE000F037FA801B4D
:100B30000A2805D9606A3843606205202870D2E728
:100B400020684068C007F0D0217E802001292168FC
:100B50000A683BD082430A60617E402001292168F7
:100B60000A6835D082430A60A17E202001292168CD
:100B70000A682FD082430A60E17E10200129216893
:100B80000A6829D002430A60217F082001292168D0
:100B90000A6823D082430A60617F0420012921680A
:100BA0000A681DD082430A60E168A0686269084350
:100BB0002169114308436168491E08432168C861DF
:100BC00000206062012028700020F8BD0243C2E7C7
:100BD0000243C8E70243CEE78243D4E70243DAE7A1
:100BE0000243E0E710B586B0044614216846FFF7DB
:100BF000BAFA17492068884227D11648C2690121EC
:100C000049060A43C261C2690A4005924269091253
:100C10000A4342614069084005900320C0020090E9
:100C200002200190002002900320039004200490F1
:100C300009206946C00600F003F9002211461E2073
:100C400000F000FA1E2000F0F3F906B010BD00001D
:100C5000006400400010024070470000064B10B5D1
:100C60001A461C3A0021FFF7B3FD03480121001D7D
:100C70004171FFF75BFC10BDEC010020704770472D
:100C8000704770B50546044620352878012805D000
:100C9000606A0121C9040843606216E002202870DE
:100CA0002068016849084900016000F077F90646AC
:100CB0000DE000F073F9801B0A2808D9606A012151
:100CC00049040843606205202870012070BD206837
:100CD0004068C007EDD1606270BD704770477047D3
:100CE000704770477047704770B500240146203147
:100CF0004A78022A03D004218163012416E00268A5
:100D000013680E25AB431360026813685B085B0031
:100D100013600122056C1346AB40C56B6B604A70D3
:100D200000220A70416B002900D08847204670BD20
:100D3000F0B4C16B0D6801680C680422066C1346A0
:100D4000B3402B420DD063070BD50B689B0602D432
:100D50000B6893430B60016C8A40C16B4A60C16AA7
:100D600019E00227B74002462F4001232032002F0E
:100D700015D0A70713D50C68A40604D40C680A255F
:100D8000AC430C605370036C02219940C36B5960F3
:100D900000211170816A002916D0F0BC084708278D
:100DA000B7402F4210D024070ED50C680E25AC4357
:100DB0000C60046C1946A140C46B6160836353707E
:100DC00000211170016BE6E7F0BC704770B50400BC
:100DD00024D00220214620310D4648702268116837
:100DE0000F48A3680140606826691843E3683343ED
:100DF000184363691843A3691843E3691843084318
:100E000010602046FFF7E0FB0020A062E062206354
:100E10006063A06301216970287070BD012070BDFE
:100E20000FC0FFFF31B500F0B9F8009C0546601C0B
:100E300000D0641C00F0B2F8401BA042FAD338BDC9
:100E4000F8B5002389E001249C402A46A4462240AC
:100E50007ED04C68022C01D0122C0CD1DC08A400EE
:100E600027183C6A5D07ED0E0F26AE40B4430E69AD
:100E7000AE4026433E6205685E000324B4400F790D
:100E8000A543BF07BF0FB7402F4307604D68012D33
:100E900005D0022D03D0112D01D0122D0ED1856861
:100EA000CF68A543B7402F43876047686546AF4387
:100EB0000D79ED06ED0F9D403D434560C568A543A6
:100EC0008C68B4402C43C4604C68E40044D5264C84
:100ED000A56901263543A561A4699D0834400094A5
:100EE000224CAD002F19BC689D072E0F0F25B54071
:100EF000AC430925ED06A84201D100250AE01C4DAE
:100F0000A84201D1012505E01A4DA84201D10225D0
:100F100000E00525B5402543BD60174C25684E68A7
:100F20009543F60300D51543256065684E689543E3
:100F3000B60300D515436560A5684E689543F60273
:100F400000D51543A560E5684E689543B60200E0FC
:100F500002E000D51543E5605B1C0A681546DA40DF
:100F600000D070E7F8BD0000001002400000014012
:100F700000040048000800480004014000690840DF
:100F800000D00120704742694A4042617047002A00
:100F900001D081617047816270470000014800689C
:100FA000704700001800002002480168491C0160D9
:100FB000704700001800002010B506480168102294
:100FC00011430160002000F007F800F017F800203E
:100FD00010BD00000020024010B5044600F0E0F80B
:100FE0007D21C900FFF7A2F800F020FB0022214676
:100FF000501E00F027F8002010BD000008B50A4878
:101000008169012211438161816911400091C269A6
:1010100001040A43C261C0690840009003480168A6
:1010200010221143016008BD001002400000014081
:10103000C106C90E012088400149086070470000C0
:1010400000E100E010B500F005FE10BDF8B5054662
:101050004E480E460068C007C00FB0420AD24B4847
:10106000016849084900314301600068C007C00FAA
:10107000B04270D12878464C800705D56068F021D1
:101080008843A968084360602878C00753D068681F
:10109000012817D0022818D0032819D02168890701
:1010A000002958DA61688908890001436160FFF707
:1010B00075FF69680746012913D002291DD003294D
:1010C00027D034E021688903EAE721688901E7E74E
:1010D000616BC903E4E7FFF761FFC11B2D48814243
:1010E00023D860680007800F0128F4D123E0FFF7C0
:1010F00055FFC11B2748814217D860680007800F41
:101100000228F4D117E0FFF749FFC11B21488142B3
:101110000BD860680007800F0328F4D10BE0FFF7BD
:101120003DFFC11B1B48814201D90320F8BD606807
:101130000007800FF3D115480168C907C90FB142F4
:101140000BD9016849084900314301600068C007B4
:10115000C00FB04201D00120F8BD2878400706D565
:101160006068072109028843E9680843606000F06D
:101170002DF86168084A0906090F515CC840074903
:1011800008600020FFF728FF0020F8BD0020024083
:101190000010024088130000722500081C00002087
:1011A00001480068704700001C0000200448054901
:1011B00000684968044A4905490F515CC8407047B6
:1011C0001C000020001002408225000830B516A344
:1011D0000FCB89B06C460FC417A30FCB0FC41A49AD
:1011E0004A680C20144604401848042C05D0184BBB
:1011F000082C04D00C2C00D1184609B030BD940244
:10120000240F6D462C5DC96A04AD0907090FD2038E
:10121000695C920F022A02D0032A00D11846FEF719
:1012200085FF6043E9E7000002030405060708099B
:101230000A0B0C0D0E0F101001020304050607081F
:10124000090A0B0C0D0E0F100010024000127A005C
:10125000006CDC02FEB504460078F04EF04DC0078D
:1012600048D068680007800F01281FD06868000711
:10127000800F022804D16868C003800F022815D0AF
:101280006168012919D001208004002901D00529B5
:1012900017D02968B14329602968814329606068B3
:1012A00000281BD0FFF77AFE074613E0286880036A
:1012B00020D56068002876D01CE02868304328607C
:1012C000EDE7296801432960F7E7FFF767FEC01BD8
:1012D000642869D828688003F7D50BE0FFF75EFE25
:1012E000074604E0FFF75AFEC01B6428F1D82868BF
:1012F0008003F7D4207880073ED568680007800F08
:1013000014D068680007800F022804D16868C00301
:10131000800F01280AD0E068002828681DD001212C
:1013200008432860FFF73AFE07460BE0286880076D
:101330000BD5E068012836D107E0FFF72FFEC01B70
:101340000228C6D828688007F7D52868F82188437E
:101350002169C900084328600EE040084000286069
:10136000FFF71CFE074604E0FFF718FEC01B02282B
:10137000AFD828688007F7D42078000724D5E06923
:101380000028686A11D0012108436862FFF706FE51
:10139000074604E0FFF702FEC01B022899D8686ADE
:1013A0008007F7D510E036E1D1E0400840006862E0
:1013B000FFF7F4FD074604E0FFF7F0FDC01B02282D
:1013C00087D8686A8007F7D4207804274007002868
:1013D00061DA00200190E869C00008D4E969B80624
:1013E0000143E961E96901400120009101908D48C4
:1013F0000168C90511D40168821511430160FFF726
:10140000CDFD009005E0FFF7C9FD0099401A642862
:1014100097D884480068C005F5D5A06801280AD08F
:10142000002801D0052811D0286A40084000286211
:10143000286AB84302E0286A012108432862A068AC
:10144000002812D0FFF7AAFD00900AE0286A38436E
:101450002862F0E7FFF7A2FD0099411A7248814225
:1014600075D8286A8007F5D50DE0FFF797FD009045
:1014700006E0FFF793FD0099411A6B48814266D858
:10148000286A8007F5D40198002804D0E969012072
:1014900000078143E9612078C00635D560690128DD
:1014A0000CD0401D686B24D038436863686B4008DB
:1014B00040006863FFF772FD074622E0686B38431F
:1014C0006863686B012108436863FFF767FD07469F
:1014D00004E0FFF763FDC01B022838D8686B800763
:1014E000F7D5686BF8218843A169C9000843686390
:1014F0000AE0B8436863F4E7FFF750FDC01B022819
:1015000025D8686B8007F7D42078800637D56868BF
:101510000007800F032813D068680007800F022897
:1015200004D16868C003800F032809D0206A00280E
:10153000686B16D030436863FFF730FD06460CE059
:10154000686BC0031BD5206A012864D117E05BE0FB
:10155000FFF724FD801B022856D8686BC003F7D51F
:101560000DE0B0436863FFF719FD064604E0FFF79E
:1015700015FD801B022847D8686BC003F7D4606A4A
:10158000002846D069680907890F022943D001263F
:1015900036060228286805D0B0432860FFF7FEFC15
:1015A000044633E0B0432860FFF7F8FC074604E048
:1015B000FFF7F4FCC01B022826D828688001F7D466
:1015C000E86A216B000900010843E862A16AE06A49
:1015D000084369687B22D203914308436860286806
:1015E00030432860FFF7DAFC044604E0FFF7D6FC3E
:1015F000001B022808D828688001F7D509E0FFF70A
:10160000CDFC001B022801D90320FEBD2868800103
:10161000F5D40020FEBD0120FEBD00000000010049
:10162000001002400070004088130000094910B506
:10163000401E884201D9012010BD074C6061032182
:10164000081F00F007FB0020A06107202061002098
:1016500010BD0000FFFFFF0000E000E07047704792
:1016600070B5040005D025462035687F002802D0DB
:1016700006E0012070BD00202877204600F00AF81F
:1016800002206877211D206800F068FB0120687740
:10169000002070BD08B500680A49884210D10A4888
:1016A0008269012189040A4382618069002208401D
:1016B000009011461620FFF7C5FC1620FFF7B8FC76
:1016C00008BD000000480140001002400268D368D5
:1016D00001210B43D360006802680A4302600020C6
:1016E0007047704770B50446006801690025C9431A
:1016F0008907002915DBC168C943890711D4E91E90
:10170000016101202077206880698007204602D08F
:10171000FFF7E7FF04E000F096F8204600F094F8A9
:10172000257720680169C943490717D4C168C943AF
:10173000490713D40421C94301610220207720689E
:1017400080698005800F204602D0FFF7CAFF04E0C1
:1017500000F079F8204600F077F8257720680169D5
:10176000C943090716D4C168C943090712D408211F
:10177000C9430161042020772068C06980072046A2
:1017800002D0FFF7AEFF04E000F05DF8204600F065
:101790005BF8257720680169C943C90617D4C16879
:1017A000C943C90613D41021C94301610820207719
:1017B0002068C0698005800F204602D0FFF791FFA6
:1017C00004E000F040F8204600F03EF8257720685D
:1017D0000169C943C90708D1C168C943C90704D110
:1017E000891E0161204600F030F820680169C94374
:1017F000090609D4C168C943090605D48021C94333
:1018000001612046FFF72AFF20680169C9434906A4
:1018100009D4C168C943490605D44021C9430161BF
:10182000204600F013F820680169C943890609D4ED
:10183000C168C943890605D42021C94301612046F6
:10184000FFF70DFF70BD70477047704770477047D6
:1018500070470000F8B503680446D86919680507A1
:101860002D0F07D1820605D58A0603D5204600F044
:1018700077FBF8BD9A68002D64D0D507ED0FFF26E1
:1018800021360E402E435DD0C60706D0CE0504D5C6
:1018900001261E62E36E3343E366870702230426B4
:1018A000002F06DAD70704D027683B62E76E37437C
:1018B000E766470706D5D20704D022681662E26EB3
:1018C0001A43E266020709D520220A402A4305D0BE
:1018D000236808221A62E36E1343E366E26E002A6D
:1018E000C7D0800604D5880602D5204600F038FB14
:1018F000E06E000703D42068806840061CD52046AF
:1019000000F012FB20688168490611D581684022E9
:1019100091438160606E00280AD01A494163606E6D
:10192000FFF7E2F90028A4D0606E416B8847F8BD4C
:101930002046FFF78DFFF8BD2046FFF789FF002006
:10194000E066F8BDC5020DD552020BD50120000599
:101950001862202120466030417281722046FFF7D4
:1019600076FFF8BD020605D50A0603D5204600F02D
:10197000CDFBF8BD4006FCD54806FAD5204600F060
:10198000E2FAF8BD151F000870B5040005D0254621
:101990006035687A002802D006E0012070BD002082
:1019A0002872204600F026F824206872206801681A
:1019B000490849000160204600F010FB0128EDD0E5
:1019C000606A002802D0204600F00AFA20684168C8
:1019D0000922D20291434160206881682A22914302
:1019E000816020680168012211430160204600F0F7
:1019F0005DFA70BDF0B587B0064614216846FEF763
:101A0000B2FB2B49306888424FD12A48C269012174
:101A100049040A43C261C2690A40059242690A4305
:101A2000426140690024084005900C20009002208B
:101A3000019003200390012004900920029469463C
:101A4000C006FFF7FDF91C481C4D802711C52C600E
:101A5000AC60EC606F6020206C6128611748083D25
:101A6000FFF7B4F9002801D0FEF7C0FD75666E627D
:101A7000124D11484435143828601020291D91C199
:101A80002C616C61AC612846EC61FFF79FF900287E
:101A900001D0FEF7ABFD3566002211461C206E62B8
:101AA000FFF7D0FA1C20FFF7C3FA07B0F0BD000023
:101AB000004400400010024058000240F80000209E
:101AC00070477047FEE7000010B50F480D490160F0
:101AD0000421416000210722816012040261012279
:101AE000C160520542610176012242768276C27659
:101AF00001774277FEF7EEFF002801D0FEF776FD72
:101B000010BD0000006400402000002008B5084817
:101B10004169012211434161406910400022009057
:101B200011460B20FFF78EFA0B20FFF781FA08BD54
:101B300000100240F0B587B014216846FEF713FB91
:101B400026484269012189040A43426142690A40E8
:101B50000592426909010A43426142690A400592BD
:101B6000426949110A434261406909260840F60664
:101B70000590002210213046FFF709FAFF200130BE
:101B8000174F0325002400906946019502943846BA
:101B9000FFF756F9A320009069460195029430465C
:101BA000FFF74EF910200090012001900294694641
:101BB00003943046FFF744F94020009001946946B1
:101BC00002943046FFF73CF90220009001946946E8
:101BD00002943846FFF734F907B0F0BD0010024018
:101BE0000004004810B50A48084901602F214160EF
:101BF000002181600161074A4161C2608161FFF794
:101C00002FFD002801D0FEF7F1FC10BD0048014077
:101C1000480000208813000010B50C480A490160F4
:101C2000E1210903416000218160C160016181619E
:101C3000C1610C22016242614162FFF7A5FE0028EA
:101C400001D0FEF7D3FC10BD004400408800002006
:101C5000704700008307FF22DB0E9A408907090EB8
:101C6000994000280BDA0007000F0838830808485D
:101C70009B001818C36993430B43C36170478308E3
:101C800004489B001B18186890430843186070476D
:101C900000ED00E000E400E07047704710B5FFF78A
:101CA00083F910BD30B591B034216846FEF75BFA78
:101CB000002401200F9410940090019000040A90D9
:101CC00000010E9402250B900D9409950C94684622
:101CD000FFF7C0FA07200D900F9401210E95109484
:101CE0000DA8FFF7B3F911B030BD0000134801682B
:101CF0000122114301604168114A114041600168AD
:101D0000104A114001600168012292049143016070
:101D100041683F22120491434160C16A09090901E7
:101D2000C162016BFF22D43291430163416B4908C8
:101D300049004163002181607047000000100240AB
:101D40000CB8FF08FFFFF6FE10B50348FFF7CAFC0A
:101D500000F06EFB10BD000048000020F0B50268E6
:101D60001A4B0124A4071A4D984203D0A04201D077
:101D7000A84203D17026B2434E683243154E164F27
:101D800098420AD0A04208D0A84206D0134CA042E4
:101D900003D0B04201D0B84204D103242402A243AC
:101DA000CC6822438024A2434C69224302608A68A3
:101DB000C2620A688262984203D0B04201D0B8423F
:101DC00001D10969016301214161F0BD002C01408D
:101DD0000004004000440140004801400020004051
:101DE00010B5818CC90707D001684A6801235B04DC
:101DF0009A43836A1A434A60818C890707D5016830
:101E00004A6801231B049A43C36A1A434A60818CBF
:101E1000490707D501684A6801239B049A43036B6D
:101E20001A434A60818C090707D501684A68012373
:101E3000DB039A43436B1A434A60818CC90607D57A
:101E40000268916801231B039943836B19439160D6
:101E5000818C890607D501688A6801235B039A4350
:101E6000C36B1A438A60818C490612D503685A688D
:101E700001210905046C8A4322435A60026C8A429C
:101E800007D10268516803235B059943436C1943EA
:101E90005160818C090607D501684A680123DB047B
:101EA000806C9A4302434A6010BD0000F8B50026DA
:101EB0000446C666FFF772F8054614492068884252
:101EC0001DD10068124F000709D501212B460022C1
:101ED00049052046009700F04CF900280DD12068F4
:101EE000006840070BD501212B46002289052046BA
:101EF000009700F03EF9002801D00320F8BD202013
:101F000060346072A07226720020F8BD0038014073
:101F1000FFFFFF0110B5406A0022014640314A83AD
:101F20004A82FFF795FC10BD01680A68FF23213340
:101F30009A430A6001688A68520852008A60202128
:101F400060308172704710B501680A6840239A4377
:101F50000A60202269210A54FFF7B3FD002010BD5A
:101F600070B50246403203466033948B9D7A016817
:101F7000222D05D08869082210438861022070BD97
:101F8000898C012685683603B54202D10569002D8A
:101F90000BD02140446D651C45652170518B491E55
:101FA0000904090C518307D015E0456D21402980B3
:101FB000416D891C4165F1E701680A68FF242134FD
:101FC000A2430A6001688A68520852008A60202190
:101FD0009972FFF775FD002070BD0000F8B504464A
:101FE0002369A268E5691A43636910202B43002125
:101FF00025681A432B680E463E4F3B4013432B6027
:1020000023685A6803252D03AA43E5682A435A60CA
:10201000236AA26925681A43AB680B273F02BB43BA
:102020001343AB60344A2568954210D1334A126B92
:102030009207920F0ED0012A05D0022A05D0032A5A
:1020400009D1022007E0042005E0082003E02C4A23
:10205000954200D100200122E369D203934224D1AA
:1020600000280CD002280DD0042813D0082817D03F
:1020700001260A0912010807400F10432FE0FFF75D
:1020800095F809E061681F4A48088018FEF74EF885
:1020900081B2EEE7FFF79AF8616840004A08F4E77A
:1020A0006168012248081204EFE7002808D00228DE
:1020B00009D004280BD0082814D001263046F8BDDA
:1020C000FFF774F805E061680F4A48080CE0FFF775
:1020D0007DF861684A088018FEF728F880B2216808
:1020E000C860EBE7616848088018FEF71FF880B207
:1020F000E860E3E7F369FFEF0038014000100240B9
:10210000004400400024F40000127A006921095CB8
:10211000212901D00220704702464032518A00290D
:1021200012D0012381681B03994202D10169002961
:1021300015D0C16C4B1CC364006809780185508AB6
:10214000401E50820020704701680A6880239A432D
:102150000A6000680168402211430160F2E7C16C27
:1021600003680988C905C90D1985C16C891CC1643A
:10217000E5E7FFB581B017460E4604460A9D1DE00F
:10218000681C1BD0002D05D0FEF708FF0499401AEB
:10219000A84213D920680168FF22A132914301604F
:1021A000206881684908490081602020603460729D
:1021B000A07200202072032005B0F0BD2068C16924
:1021C0003046884304D00020B842D9D00020F3E73D
:1021D0000120F9E710B50248FFF73CFB10BD0000F5
:1021E0008800002030B47446641E2578641CAB421D
:1021F00000D21D46635D5B00E31830BC184702E067
:1022000008C8121F08C1002AFAD170477047002081
:1022100001E001C1121F002AFBD170478900081894
:102220008260704770B50446406880470146E07898
:10223000420702D02288521C2280C309C7228B4247
:102240000FD00623D84101235B07C0181A23D841B9
:1022500083065B0FE070032B05D34006400EC901D7
:1022600008431040E070C0B24107490F00250B0041
:10227000FFF7B8FF0604224880219821C1094006D3
:10228000C00F8142A07812D10007000FA070A16892
:10229000002901D0204688472580A0780009000148
:1022A000401CA070E078C008C000401C14E000078B
:1022B000000F8030A07070BDC1094006C00F814280
:1022C0000CD0A0780007000F1030A070E168002942
:1022D00062D0204688475FE0E07070BD2088FF2113
:1022E0002D318842F9D9A0780007000F5030A07036
:1022F000E169002901D020468847E078C008C00085
:10230000401DE9E7C1094006C00F81421BD1A078FA
:102310000007000FA070A168002901D0204688475F
:10232000A0780421C841890640181C21C841A0702A
:102330002169002901D0204688472580E078C0081F
:10234000C000C01CC8E720883C28C6D9A078000778
:10235000000F012802D0022804D039E03030A070EC
:10236000616902E04030A070A169002930D02046A8
:1023700088472DE0C1094006C00F8142ADD0A0784A
:102380000007000F1030A070E168002901D020463E
:10239000884720883C281BD22580E078C008C000F0
:1023A000801C99E7C1094006C00F8142A07809D17D
:1023B0000007000F6030A070216A00298DD02046F0
:1023C000884770BD0007000F1030A070E168CCE7AF
:1023D000E078C008C0007FE770B50D461646044699
:1023E0002821FDF7C0FEA0780007000F8030A07004
:1023F0006560A847C101E0784006400E0843BF2150
:102400000840F107490E0843E07070BD074A1168A3
:102410000B4605E0814202D10020C0437047496A63
:102420000029F7D14362106000207047140000209B
:1024300010B50548046803E02046FFF7F3FE646A20
:10244000002CF9D110BD0000140000200349002029
:1024500000220856D2430A70704700000200002094
:102460000349012000220856D2434A7070470000F9
:10247000020000200024FEF79FFDFFF713FCFFF78A
:1024800059FBFFF743FBFFF71FFBFFF7ABFBFFF722
:10249000C3FBFDF739FFFEF72BF82B48FFF716F9C2
:1024A0002A4DFFF7D3FF2870FFF7DAFF6870032883
:1024B00006D00020285603280FD0042816D020E08C
:1024C00000210120FDF795FF0120FEF7ABFC012163
:1024D00089030120FDF7A4FF13E001210846FDF761
:1024E00088FF0120FEF79EFC002107E0012108463D
:1024F000FDF77FFF0120FEF795FC15490120FDF750
:10250000A4FFFEF74BFD001B6428CAD3FEF746FD6F
:10251000044609201021C006FEF735FD0120FEF714
:1025200081FC0120FDF747FF0120FEF77BFC012025
:10253000FDF750FF0120FEF775FC0120FDF72CFF91
:102540000120FEF76FFCACE74800002000000020EF
:10255000B80B000010B502210148FEF70FFD10BDB9
:102560000004004810B509204021C006FEF706FD12
:1025700010BD000000000000000001020304060777
:10258000080900000000010203040000AC25000857
:102590000000002020000000FE210008CC250008DB
:1025A00020000020D80500000E220008FFFFFFFFDA
:1025B000010000000000000000000000000000001A
:0C25C000000000000000000000127A0083
:04000005080000C12E
:00000001FF
